:100000000C942A000C9434000C9434000C943400AA
:100010000C9434000C9434000C9434000C94340090
:100020000C9434000C9434000C9434000C94340080
:100030000C9434000C9434000C9434000C94340070
:100040000C9434000C9434000C9434000C94340060
:100050000C94340011241FBECFE5D8E0DEBFCDBF25
:100060000E949D040C9433050C940000DF93CF9301
:10007000CDB7DEB7A7E2B0E0E7E2F0E080818C9395
:10008000A6E2B0E0E6E2F0E0808180688C93CF9158
:10009000DF910895DF93CF930F92CDB7DEB78983B9
:1000A000A7E2B0E0E7E2F0E08081982F907E8981BE
:1000B000892B8C93A6E2B0E0E6E2F0E080818064D8
:1000C0008C93E6E2F0E0808182958F70882F90E03B
:1000D000817090700097A9F3A6E2B0E0E6E2F0E04C
:1000E000808180618C93E4E2F0E0808191810F90C7
:1000F000CF91DF910895DF93CF93CDB7DEB72797E8
:100100000FB6F894DEBF0FBECDBF89836A834B83E1
:100110008981843008F0EEC08A81883008F0EAC016
:100120008B81882309F074C08981282F30E03F83B8
:100130002E838E819F818130910559F12E813F81DF
:10014000223031052CF48E819F81009769F0D2C056
:100150002E813F812230310589F18E819F8183304C
:10016000910509F440C0C6C0AAE3B0E0EAE3F0E0BC
:100170008081482F8A81282F30E081E090E0022E94
:1001800002C0880F991F0A94E2F7809584238C930C
:10019000B1C0A7E3B0E0E7E3F0E08081482F8A81B7
:1001A000282F30E081E090E0022E02C0880F991FD6
:1001B0000A94E2F7809584238C939CC0A4E3B0E07A
:1001C000E4E3F0E08081482F8A81282F30E081E04D
:1001D00090E0022E02C0880F991F0A94E2F78095E2
:1001E00084238C9387C0A1E3B0E0E1E3F0E0808159
:1001F000482F8A81282F30E081E090E0022E02C053
:10020000880F991F0A94E2F7809584238C9372C01B
:100210008B818F3F09F06EC08981282F30E03D83AC
:100220002C838C819D818130910549F12C813D8108
:10023000223031052CF48C819D81009761F05AC0E9
:100240002C813D812230310571F18C819D8183307B
:100250009105E9F14FC0AAE3B0E0EAE3F0E0808164
:10026000482F8A81282F30E081E090E0022E02C0E2
:10027000880F991F0A94E2F7842B8C933BC0A7E365
:10028000B0E0E7E3F0E08081482F8A81282F30E05A
:1002900081E090E0022E02C0880F991F0A94E2F7D5
:1002A000842B8C9327C0A4E3B0E0E4E3F0E08081EA
:1002B000482F8A81282F30E081E090E0022E02C092
:1002C000880F991F0A94E2F7842B8C9313C0A1E343
:1002D000B0E0E1E3F0E08081482F8A81282F30E010
:1002E00081E090E0022E02C0880F991F0A94E2F785
:1002F000842B8C9327960FB6F894DEBF0FBECDBF2C
:10030000CF91DF910895DF93CF93CDB7DEB72797D5
:100310000FB6F894DEBF0FBECDBF89836A834B83CF
:100320008981843008F0EEC08A81883008F0EAC004
:100330008B818F3F09F06FC08981282F30E03F8388
:100340002E838E819F818130910549F12E813F81DD
:10035000223031052CF48E819F81009761F0D2C04C
:100360002E813F812230310571F18E819F81833052
:100370009105E9F1C7C0ABE3B0E0EBE3F0E08081C9
:10038000482F8A81282F30E081E090E0022E02C0C1
:10039000880F991F0A94E2F7842B8C93B3C0A8E3CB
:1003A000B0E0E8E3F0E08081482F8A81282F30E038
:1003B00081E090E0022E02C0880F991F0A94E2F7B4
:1003C000842B8C939FC0A5E3B0E0E5E3F0E080814F
:1003D000482F8A81282F30E081E090E0022E02C071
:1003E000880F991F0A94E2F7842B8C938BC0A2E3A9
:1003F000B0E0E2E3F0E08081482F8A81282F30E0EE
:1004000081E090E0022E02C0880F991F0A94E2F763
:10041000842B8C9377C08B81882309F073C08981EA
:10042000282F30E03D832C838C819D818130910584
:1004300059F12C813D81223031052CF48C819D8134
:10044000009769F05FC02C813D812230310589F130
:100450008C819D818330910509F440C053C0ABE38A
:10046000B0E0EBE3F0E08081482F8A81282F30E074
:1004700081E090E0022E02C0880F991F0A94E2F7F3
:10048000809584238C933EC0A8E3B0E0E8E3F0E0DD
:100490008081482F8A81282F30E081E090E0022E71
:1004A00002C0880F991F0A94E2F7809584238C93E9
:1004B00029C0A5E3B0E0E5E3F0E08081482F8A8120
:1004C000282F30E081E090E0022E02C0880F991FB3
:1004D0000A94E2F7809584238C9314C0A2E3B0E0E1
:1004E000E2E3F0E08081482F8A81282F30E081E02C
:1004F00090E0022E02C0880F991F0A94E2F78095BF
:1005000084238C9327960FB6F894DEBF0FBECDBF21
:10051000CF91DF910895DF93CF9300D000D00F9259
:10052000CDB7DEB78A836B838FEF89838A8184306E
:1005300008F06CC08B81883008F068C08A81282F51
:1005400030E03D832C834C815D814130510541F188
:100550008C819D818230910534F42C813D8121155F
:10056000310561F055C04C815D814230510551F13A
:100570008C819D8183309105B9F14AC0E9E3F0E0B7
:100580008081282F30E08B81882F90E0A90102C064
:10059000559547958A95E2F7CA018170898338C0DD
:1005A000E6E3F0E08081282F30E08B81882F90E017
:1005B000A90102C0559547958A95E2F7CA01817055
:1005C000898326C0E3E3F0E08081282F30E08B812F
:1005D000882F90E0A90102C0559547958A95E2F7CA
:1005E000CA018170898314C0E0E3F0E08081282F84
:1005F00030E08B81882F90E0A90102C05595479586
:100600008A95E2F7CA018170898302C08FEF8983DE
:1006100089810F900F900F900F900F90CF91DF91E5
:100620000895DF93CF9300D000D0CDB7DEB7898394
:100630006A838981843008F072C08A81883008F02A
:100640006EC08981282F30E03C832B838B819C8175
:100650008130910549F12B813C81223031052CF408
:100660008B819C81009761F05AC02B813C812230A4
:10067000310571F18B819C8183309105E9F14FC087
:10068000ABE3B0E0EBE3F0E08081482F8A81282FD4
:1006900030E081E090E0022E02C0880F991F0A949A
:1006A000E2F784278C933BC0A8E3B0E0E8E3F0E0F6
:1006B0008081482F8A81282F30E081E090E0022E4F
:1006C00002C0880F991F0A94E2F784278C9327C0F1
:1006D000A5E3B0E0E5E3F0E08081482F8A81282F90
:1006E00030E081E090E0022E02C0880F991F0A944A
:1006F000E2F784278C9313C0A2E3B0E0E2E3F0E0DA
:100700008081482F8A81282F30E081E090E0022EFE
:1007100002C0880F991F0A94E2F784278C930F90E8
:100720000F900F900F90CF91DF910895DF93CF93AB
:1007300000D000D0CDB7DEB789836A838981843049
:1007400008F072C08A81883008F06EC08981282F35
:1007500030E03C832B838B819C818130910549F172
:100760002B813C81223031052CF48B819C810097B8
:1007700061F05AC02B813C812230310571F18B81AF
:100780009C8183309105E9F14FC0ABE3B0E0EBE32E
:10079000F0E08081482F8A81282F30E081E090E0CE
:1007A000022E02C0880F991F0A94E2F7842B8C93C3
:1007B0003BC0A8E3B0E0E8E3F0E08081482F8A8105
:1007C000282F30E081E090E0022E02C0880F991FB0
:1007D0000A94E2F7842B8C9327C0A5E3B0E0E5E30D
:1007E000F0E08081482F8A81282F30E081E090E07E
:1007F000022E02C0880F991F0A94E2F7842B8C9373
:1008000013C0A2E3B0E0E2E3F0E08081482F8A81E8
:10081000282F30E081E090E0022E02C0880F991F5F
:100820000A94E2F7842B8C930F900F900F900F9007
:10083000CF91DF910895DF93CF9300D000D0CDB753
:10084000DEB789836A838981282F30E03C832B833C
:100850008B819C8181309105D1F02B813C812230AC
:1008600031052CF48B819C81009761F01EC02B8197
:100870003C812230310581F08B819C818330910550
:1008800081F013C0EBE3F0E08A8180830EC0E8E3DF
:10089000F0E08A81808309C0E5E3F0E08A8180830B
:1008A00004C0E2E3F0E08A8180830F900F900F9004
:1008B0000F90CF91DF910895DF93CF9300D000D0B8
:1008C000CDB7DEB789836A838981282F30E03C83E6
:1008D0002B838B819C8181309105D1F02B813C81D0
:1008E000223031052CF48B819C81009761F01EC071
:1008F0002B813C812230310581F08B819C818330BA
:10090000910581F013C0EAE3F0E08A8180830EC094
:10091000E7E3F0E08A81808309C0E4E3F0E08A81C4
:10092000808304C0E1E3F0E08A8180830F900F9020
:100930000F900F90CF91DF910895DF93CF9300D068
:1009400000D0CDB7DEB780E060E040E00E947B00E1
:1009500083E060E04FEF0E947B0083E061E04FEFB7
:100960000E947B0083E062E04FEF0E947B000E94C8
:10097000360080E00E944A009C838B838B819C819F
:10098000CC01A0E0B0E028E833E140E050E0BC0159
:10099000CD010E941405DC01CB01072E7AE0B6954B
:1009A000A795979587957A95D1F7702D9A83898326
:1009B00089819A8125E08D3D920780F483E060E093
:1009C0004FEF0E94830183E061E040E00E948301D9
:1009D00083E062E040E00E948301CBCF89819A816D
:1009E0002BE0893B920780F483E060E040E00E94C6
:1009F000830183E061E04FEF0E94830183E062E0C6
:100A000040E00E948301B5CF83E060E040E00E94B7
:100A1000830183E061E040E00E94830183E062E0C3
:100A20004FEF0E948301A5CF629FD001739FF00119
:100A3000829FE00DF11D649FE00DF11D929FF00D6E
:100A4000839FF00D749FF00D659FF00D9927729FA5
:100A5000B00DE11DF91F639FB00DE11DF91FBD0130
:0A0A6000CF0111240895F894FFCF90
:00000001FF
